{"address":"0xCDC9e454AB035D1b897EB5f3C583a06b4cB53B3a","bytecode":"0x6080604052604051610609380380610609833981810160405281019061002591906100f0565b804210610067576040517f08c379a000000000000000000000000000000000000000000000000000000000815260040161005e906101a0565b60405180910390fd5b8060008190555033600160006101000a81548173ffffffffffffffffffffffffffffffffffffffff021916908373ffffffffffffffffffffffffffffffffffffffff160217905550506101c0565b600080fd5b6000819050919050565b6100cd816100ba565b81146100d857600080fd5b50565b6000815190506100ea816100c4565b92915050565b600060208284031215610106576101056100b5565b5b6000610114848285016100db565b91505092915050565b600082825260208201905092915050565b7f556e6c6f636b2074696d652073686f756c6420626520696e207468652066757460008201527f7572650000000000000000000000000000000000000000000000000000000000602082015250565b600061018a60238361011d565b91506101958261012e565b604082019050919050565b600060208201905081810360008301526101b98161017d565b9050919050565b61043a806101cf6000396000f3fe608060405234801561001057600080fd5b506004361061004c5760003560e01c806312065fe014610051578063251c1aa31461006f5780633ccfd60b1461008d5780638da5cb5b14610097575b600080fd5b6100596100b5565b604051610066919061027b565b60405180910390f35b6100776100bd565b604051610084919061027b565b60405180910390f35b6100956100c3565b005b61009f61023c565b6040516100ac91906102d7565b60405180910390f35b600047905090565b60005481565b600054421015610108576040517f08c379a00000000000000000000000000000000000000000000000000000000081526004016100ff9061034f565b60405180910390fd5b600160009054906101000a900473ffffffffffffffffffffffffffffffffffffffff1673ffffffffffffffffffffffffffffffffffffffff163373ffffffffffffffffffffffffffffffffffffffff1614610198576040517f08c379a000000000000000000000000000000000000000000000000000000000815260040161018f906103bb565b60405180910390fd5b7fbf2ed60bd5b5965d685680c01195c9514e4382e28e3a5a2d2d5244bf59411b9347426040516101c99291906103db565b60405180910390a1600160009054906101000a900473ffffffffffffffffffffffffffffffffffffffff1673ffffffffffffffffffffffffffffffffffffffff166108fc479081150290604051600060405180830381858888f19350505050158015610239573d6000803e3d6000fd5b50565b600160009054906101000a900473ffffffffffffffffffffffffffffffffffffffff1681565b6000819050919050565b61027581610262565b82525050565b6000602082019050610290600083018461026c565b92915050565b600073ffffffffffffffffffffffffffffffffffffffff82169050919050565b60006102c182610296565b9050919050565b6102d1816102b6565b82525050565b60006020820190506102ec60008301846102c8565b92915050565b600082825260208201905092915050565b7f596f752063616e27742077697468647261772079657400000000000000000000600082015250565b60006103396016836102f2565b915061034482610303565b602082019050919050565b600060208201905081810360008301526103688161032c565b9050919050565b7f596f75206172656e277420746865206f776e6572000000000000000000000000600082015250565b60006103a56014836102f2565b91506103b08261036f565b602082019050919050565b600060208201905081810360008301526103d481610398565b9050919050565b60006040820190506103f0600083018561026c565b6103fd602083018461026c565b939250505056fea26469706673582212208eb899ff6f1049c08d6fe77ad7aaaa082d03656adc419a979e3deefb87e2301d64736f6c63430008120033","abi":[{"inputs":[{"internalType":"uint256","name":"_unlockTime","type":"uint256"}],"stateMutability":"payable","type":"constructor"},{"anonymous":false,"inputs":[{"indexed":false,"internalType":"uint256","name":"amount","type":"uint256"},{"indexed":false,"internalType":"uint256","name":"when","type":"uint256"}],"name":"Withdrawal","type":"event"},{"inputs":[],"name":"getBalance","outputs":[{"internalType":"uint256","name":"","type":"uint256"}],"stateMutability":"view","type":"function"},{"inputs":[],"name":"owner","outputs":[{"internalType":"address payable","name":"","type":"address"}],"stateMutability":"view","type":"function"},{"inputs":[],"name":"unlockTime","outputs":[{"internalType":"uint256","name":"","type":"uint256"}],"stateMutability":"view","type":"function"},{"inputs":[],"name":"withdraw","outputs":[],"stateMutability":"nonpayable","type":"function"}]}